:020000040800F2
:1000000060070020B9010008F51A0008ED1A000881
:10001000F11A00086D0F0008111C00080000000014
:10002000000000000000000000000000AD1B000800
:10003000710F0008000000006D1B0008051C00087F
:10004000D3010008D3010008D3010008D301000840
:10005000D3010008D3010008D3010008D301000830
:10006000D3010008D3010008D3010008D301000820
:10007000D3010008D3010008D3010008D301000810
:10008000D3010008D3010008D3010008D301000800
:10009000D3010008D3010008D3010008D3010008F0
:1000A000D3010008D3010008D3010008D3010008E0
:1000B000D3010008D3010008D3010008D3010008D0
:1000C000D3010008D3010008D3010008D3010008C0
:1000D000D3010008D3010008D3010008D3010008B0
:1000E000D3010008D3010008D301000800F002F892
:1000F00000F053F80AA090E8000C82448344AAF16F
:100100000107DA4501D100F048F8AFF2090EBAE86C
:100110000F0013F0010F18BFFB1A43F0010318473B
:10012000682B0000882B0000103A24BF78C878C1E3
:10013000FAD8520724BF30C830C144BF04680C60ED
:10014000704700000023002400250026103A28BF35
:1001500078C1FBD8520728BF30C148BF0B60704739
:10016000662902F03985732900F067850020704701
:100170001FB59DE8030000F0C5FA00F0B1FD0400D2
:100180000020002102F012FDE06000F06FF91FBDB9
:1001900010B5002000F055FD10BD00F07BFD1146AC
:1001A000FFF7E6FF02F0E4F800F06AFE03B4FFF7A1
:1001B000EFFF03BC00F07CFA09488047094800477C
:1001C000FEE7FEE7FEE7FEE7FEE7FEE7FEE7FEE707
:1001D000FEE7FEE704480549054A064B7047000064
:1001E0000D1C0008ED0000086001002060070020E1
:1001F00060030020600300200B460146184600F013
:10020000D1B940EA0103024630B59B0710D14FF047
:10021000013400E008C208C91D1B9D4315EAC41F34
:10022000F8D013F0FF0102F8011B0DD01B0AF8E70C
:1002300011F8013B002B02F8013B05D011F8013BFE
:10024000002B02F8013BF3D130BD10B5431C02E096
:1002500010F8011B71B18107FAD14FF0013202C8C9
:100260008C1A8C4314EAC211F9D0C01A0A0603D0C2
:10027000C01E10BDC01A10BD0A0401D0801E10BDE2
:100280000902FCD0401E10BD032A40F2308010F05D
:10029000030C00F0158011F8013BBCF1020F624421
:1002A00098BF11F801CB00F8013B38BF11F8013BB2
:1002B000A2F1040298BF00F801CB38BF00F8013B5F
:1002C00011F0030300F08581083AC0F0088051F86E
:1002D000043B083A51F804CBA0E80810F5E7121DDA
:1002E0005CBF51F8043B40F8043BAFF30080D207F9
:1002F00024BF11F8013B11F801CB48BF11F8012BC5
:1003000024BF00F8013B00F801CB48BF00F8012BE7
:100310007047431A28BF9A427FF6B6AF1044114483
:10032000032A40F2268010F0030F1EBF11F8013D92
:10033000521E00F8013D10F0030F7FF4F6AF11F0EC
:10034000030300F08B81083AC0F00B8051F8043DA4
:10035000083A51F804CD40F8043D40F804CDFFF7C9
:10036000F3BF121D5CBF51F8043D40F8043DAFF3EC
:100370000080D20724BF11F8013D11F801CD48BF1C
:1003800011F8012C24BF00F8013D00F801CD48BF51
:1003900000F8012C70474FF0000200B51346944658
:1003A0009646203922BFA0E80C50A0E80C50B1F1CD
:1003B0002001BFF4F7AF090728BFA0E80C5048BFE1
:1003C0000CC05DF804EB890028BF40F8042B08BF7F
:1003D000704748BF20F8022B11F0804F18BF00F87B
:1003E000012B70474FF0013C50F8042B51F8043BAF
:1003F0009A4221D1A2EB0C03934313EACC1317D1F9
:1004000050F8042B51F8043B9A4215D1A2EB0C038F
:10041000934313EACC130BD150F8042B51F8043B4F
:100420009A4209D1A2EB0C03934313EACC13DBD01D
:100430004FF00000704700BFD01A01BAB1FA81F145
:1004400001F0180122FA01F0CB40DBB2C0B2C01AB1
:10045000C1F120012CFA01F3D11A914311EAC31121
:10046000E6D17047704770477047000070B5064C82
:100470007C44064D7D4404E02046016808448047E2
:10048000241DAC42F8D170BD502800005028000057
:1004900070B5064600F016F9056806F10B0020F06D
:1004A0000704B4429CBF002070BD2B466A68BAB1F5
:1004B0001068A04210D304F1080188423CBF506884
:1004C000586007D35168101941601168091B016019
:1004D00058601460101D70BD13465268002AE7D1A1
:1004E0002146284600F0FAF80028DED170BD70B52C
:1004F0000446051F00F0E6F80068002C14BF4468AD
:1005000070BD002C18BFAC423CBF20466468F8D3D5
:1005100001680A18AA4218BF456003D12A68054637
:100520001144016028684119A1421CBF6C6070BD74
:100530006168696021680844286070BD70B50C4628
:100540000546012A05D02878800600D5EA690023EF
:1005500002E0012305E05B1C934202D2E05C00282C
:10056000F9D1A869E618C01AA861286A1844286257
:100570002846AFF3008004E0D5E9012114F8010B0F
:100580009047B442F8D32846AFF3008070BD10B551
:10059000002000F077FBFFF7FBFDBDE810400120D5
:1005A00000F086B82DE9F041074615460E461020AA
:1005B000FFF76EFF04000AD06760C4E9026500F02F
:1005C00085F80168216004600020BDE8F081012009
:1005D000FBE710B5203AC0F00B80B1E81850A0E856
:1005E0001850B1E81850A0E81850203ABFF4F5AF01
:1005F0005FEA027C24BFB1E81850A0E8185044BF5D
:1006000018C918C0BDE810405FEA827C24BF51F8C9
:10061000043B40F8043B08BF7047D20728BF31F8BD
:10062000023B48BF11F8012B28BF20F8023B48BF0E
:1006300000F8012B7047431A28BF9A427FF6C9AFD2
:100640001044114410F0030F1EBF11F8013D521E5B
:1006500000F8013D10F0030F7FF4F6AF103AC0F040
:100660000A8010B531E9185020E91850103ABFF44B
:10067000F9AFBDE81040530724BF31E9081020E965
:10068000081044BF51F8043D40F8043D12F0030F38
:1006900008BF7047D20728BF31F8023D48BF11F8A4
:1006A000012C28BF20F8023D48BF00F8012C7047FC
:1006B00001491820ABBEFEE7260002000048704743
:1006C00010000020004870471800002000487047C4
:1006D00048000020704770477047704738B504469F
:1006E0000A4600206946AFF30080002808BF38BDE5
:1006F00002460099204600F0F7FA012038BD01209B
:1007000000F0E4BBF8B5AFF30080054600200C46CE
:10071000102000BF0646A819A0420DD932466946EE
:100720000020AFF30080070008BF00F0CFFB009867
:10073000A04218BF0546C419FFF7C4FF056007466D
:10074000F01D20F007004619284600F00AF8B442D0
:1007500008BFF8BDA21B31463868BDE8F84000F07C
:10076000C3BA00210160C0E9011070471020704732
:1007700030B5B0F10A0271F100034FEA900E4EEA73
:10078000817EB0EB0E0061EB91014FEA101E4EEA44
:10079000017E10EB0E0041EB11114FEA102E4EEAD4
:1007A000016E10EB0E0041EB11214FEA104E4EEAA4
:1007B000014E10EB0E0041EB1141401841F10001D8
:1007C0004FEAD00040EA41704FEAD1014FEA81047C
:1007D00044EA907410EB800544EB01046D1944EB7E
:1007E0000404521BA3414FF0000348BF0A3200D556
:1007F00030BD401C41F1000130BD2DE9FF4F0C46DA
:100800001E464FF0FF378BB0D2E90001DDF8608063
:100810000A908A46C1F30A5505B93D4600210846AB
:100820004FF00000BAF1000F00F4400005DA00EBD1
:1008300080004FF4400101EA50004FEA9059B9F1AD
:10084000010F00DDB9460A9850EA4A000ED044F67E
:100850001050A5F2FF3545432F14B8F1000F1ED0FC
:100860007542291E1EDDC9F100021CE0B8F1010F1E
:100870004FF0000001D0302103E0F24305E02154A5
:10088000401CB042FBDB30460022002121540B9972
:10089000C1F80880C1E900200FB0BDE8F08FBD1B92
:1008A0006D1CDEE74A4600DA694206A800F076FAD7
:1008B00006AB93E8070003AB83E8070050460A99AC
:1008C00001F098FD8DE80700A0F500501F3800905A
:1008D0000398002D0ADD42F21F014A460844002316
:1008E00003A90390684602F001F809E0A0F5005062
:1008F0004A461F38002303A90390684602F00BF80C
:100900008DE807000004000C03D04FF0FF304108D1
:1009100000E01046B8F1000F03D000220092154607
:100920001EE0751E05D4FFF723FF303262556D1EA1
:10093000F9D5B3460122084302D000227F1C04E00F
:100940002078302801D100227F1E002A099784D008
:100950001DE0112D07DAFFF70BFF303262556D1CD9
:1009600050EA0102F5D1084302D00098C8B10EE068
:100970000021681E05E0235C625C63542254401E23
:10098000491C8142F7DBAB46A81B401E09900020A2
:1009900004F80B000B98099AC0F80880C0E9002BF6
:1009A0007AE711264FF0000857E72DE9F04F884607
:1009B0000446D21D22F0070191B0D1E90001CDE932
:1009C0000A0102F0DFF802460B98C00F01D02D207B
:1009D00007E02068810701D52B2002E0202101EAF1
:1009E000C000032A099001D0072A05DB03464146CF
:1009F000204600F093F90BE12078800601D5E069EC
:100A000000E00620B8F1650F814606D0B8F1660F08
:100A100018D0B8F1670F70D131E00020B9F1110F93
:100A2000009001DB112301E009F101030AAA01A9E9
:100A30000CA8FFF7E2FEDDE90C70002609F10105C4
:100A4000834647E001204B4600904FF000470AAA3A
:100A500001A90CA8FFF7D1FEDDE90DB00C995D46A8
:100A6000002610B909F101000D18B9EB050003D4F7
:100A7000C0F1FF3609F10105A5EB09002BE0B9F142
:100A8000010F01DA4FF001090020B9F1110F0090B8
:100A9000484601DD112300E003460AAA01A90CA87B
:100AA000FFF7ABFEDDE90C704D460026834620784B
:100AB00000070AD4AB4500DA5D4601A8012D04DD2C
:100AC000411911F8011C302907D04F4502DA17F1FE
:100AD000040F04DA012082460FE06D1EEEE7002FBE
:100AE00002DCED1B3E4403E0781CA84200DD7D1CC7
:100AF000B81B00F1010A4FF000472078000703D42B
:100B0000AA4501DB4FF0FF3A0021B7F1004F0DF18C
:100B100043088DF8431024D002202B23002F01DA44
:100B20007F422D230A21021EA0F1010000DC5FB1EB
:100B300097FBF1FC97FBF1F201FB1C7C17460CF1D3
:100B4000300C08F801CDEEE7A8F101000370218810
:100B5000090501D5452100E06521A0F1010800F853
:100B6000011C09980FA9A1EB0807FF1D00B1012086
:100B7000411901EBEA70A1693844081A401EA061CE
:100B80002078C00602D42046AFF30080099828B12F
:100B9000D4E901219047206A401C20622078C006D9
:100BA00022D52046AFF300801EE0002E04DBB345C3
:100BB00002DD01A8805D00E03020D4E901219047EA
:100BC000206A401C2062761CAAF101005FEA000A3C
:100BD0000AD100F085F8C0680168405CD4E90121C1
:100BE0009047206A401C2062281EA5F10105DCDC2C
:100BF00007E0D4E9012118F8010B9047206A401C56
:100C00002062381EA7F10107F3DC2046AFF3008015
:100C1000032011B041E610B5436913B1AFF3008072
:100C200001E0FFF78BFC012010BD127800F12401D8
:100C30000A7000224A700122EDE711684FF0FF327E
:100C4000E9E72DE9F0410646FFF740FD80464546BD
:100C500013E016B1E068B0420ED120682860D4E9F4
:100C60000101D8F8007088472046FFF740FCD8F80B
:100C70000000B842EBD100E025462C68002CE8D1FA
:100C8000BDE8F08110B500F009F9BDE8104000F0B2
:100C900000B970477546FFF711FDAE46050069467D
:100CA000534620F00700854618B020B5FFF792FAAA
:100CB000BDE820404FF000064FF000074FF000085D
:100CC0004FF0000BAC46ACE8C009ACE8C009ACE89A
:100CD000C009ACE8C00921F007018D46704700004B
:100CE0000048704730000020034640688C460028CA
:100CF00018BF88423CBF03464068F8D318681844C0
:100D0000884207D00CF1030020F00700001D411AB3
:100D1000521A0146081D0A60FFF7E9BB2DE9F041B0
:100D20001F46044603260168072A01F4006004DB1D
:100D300008B116A505E016A503E008B115A500E069
:100D400015A521F010002060A069C01EA0610FB1A0
:100D5000401EA0612046AFF300804FB1D4E90121CD
:100D600038469047206A401C2062C01C206206E082
:100D7000206AFAE7D4E9012115F8010B9047761EA5
:100D8000F8D22046AFF30080BDE8F0814E414E001E
:100D90006E616E00494E4600696E66002DE9F047AF
:100DA000814616468AB0354878440DC88DE80D0056
:100DB00032487844801C03AC0DC884E80D0041F62D
:100DC0009B300844372190FBF1F290FBF1F5A5F13F
:100DD000800501FB12041B3C02D56442012000E0A7
:100DE0000020DFF898A080460027FA44AAF1BE0A46
:100DF0000EE0E0070AD03246684607EB47010123C0
:100E00000AEB810101F087FD8DE8070064107F1C6B
:100E1000002CEED1194F7F44AE3F19E0E80715D002
:100E200007EB04100DF1180A90E80E008AE80E0096
:100E3000C068F04201D1981908903246012306A9F2
:100E400003A801F068FD03AB83E807006D10641C84
:100E5000002DE3D14FF0010332466946B8F1000F8F
:100E600003A802D001F042FD01E001F054FDC9E900
:100E70000001C9F808200AB0BDE8F087AC1E0000E8
:100E800010B50446AFF300802046BDE81040FFF7E0
:100E90008DB9002801D0FFF70BBC704710B50021B9
:100EA00002A000F01AF8012010BD0000534947418C
:100EB0004252543A2041626E6F726D616C207465CB
:100EC000726D696E6174696F6E00000010B500F09C
:100ED0001DF8BDE81040FFF7DCBF70B505460C46B5
:100EE0000A2000E06D1C00F039F835B128780028A0
:100EF000F8D102E0641C00F031F814B12078002829
:100F0000F8D1BDE870400A2000F028B810B50128DB
:100F100005D0002103A0FFF7E0FF012010BD09A1CB
:100F2000F8E7000053494752544D454D3A204F755C
:100F300074206F662068656170206D656D6F7279D1
:100F4000000000003A2048656170206D656D6F7289
:100F50007920636F727275707465640008B56946B4
:100F60008DF800000320ABBE08BD0000FFE7FEE7E0
:100F70007047000081B0EFF3108072B60090FFE779
:100F8000FEE7000040F25C10C2F20000006870470B
:100F900040F20400C2F20000027840F25C11C2F29A
:100FA00000010868104408607047000080B542F2F4
:100FB0000001C4F20201086840F01000086003203C
:100FC00000F08CF80F2000F005F800F03BF800204E
:100FD00080BD000080B582B0009040F20000C2F2F7
:100FE0000000006840F20401C2F200010A784FF4E8
:100FF0007A71B1FBF2F1B0FBF1F000F06FFD20B1BE
:10100000FFE701208DF8070018E000980F280DD8A1
:10101000FFE700994FF0FF30002200F045F80098FC
:1010200040F20801C2F20001086003E001208DF8DF
:10103000070003E000208DF80700FFE79DF8070098
:1010400002B080BD83B0FFE741F21800C4F2020095
:10105000016841F001010160006800F001000290A8
:101060000298FFE7FFE741F21C00C4F202000168AA
:1010700041F080510160006800F0805001900198BB
:10108000FFE7FFE70421C4F201010868009000981F
:1010900020F0E0600090009840F000700090009810
:1010A0000860FFE703B0704780B586B08DF8170081
:1010B000049103920020029001F0FCF802909DF947
:1010C0001700019002980499039A00F019FD014657
:1010D000019801F0F7F806B080BD000080B582B03D
:1010E0000190019801F010F902B080BD7047000036
:1010F00080B584B002900191029820B9FFE70120E9
:101100008DF80F001BE1019842F20001C4F20201C8
:10111000096801F00701884216D9FFE742F2000092
:10112000C4F20200016821F00701019A1143016035
:10113000006800F007000199884204D0FFE7012011
:101140008DF80F00FBE0FFE7029800788007002889
:101150002AD5FFE7029800784007002809D5FFE765
:1011600041F20401C4F20201086840F4E060086042
:10117000FFE7029800780007002809D5FFE741F251
:101180000401C4F20201086840F460500860FFE7FF
:1011900041F20401C4F20201086820F0F000029A52
:1011A000926810430860FFE702980078C0070028A3
:1011B00060D0FFE70298406801280ED1FFE741F2B6
:1011C0000000C4F2020000688003002804D4FFE796
:1011D00001208DF80F00B2E021E00298406802285B
:1011E0000ED1FFE741F20000C4F202000068800166
:1011F000002804D4FFE701208DF80F009FE00DE0E8
:1012000041F20000C4F2020000688007002804D404
:10121000FFE701208DF80F0091E0FFE7FFE741F2C3
:101220000401C4F20201086820F00300029A526827
:1012300010430860FFF7A6FE0090FFE741F20400AC
:10124000C4F20200006800F00C0002994968B0EB9B
:10125000810F0ED0FFE7FFF795FE0099401A41F28B
:101260008931884204D3FFE703208DF80F0066E040
:10127000E4E7FFE7019842F20001C4F202010968C5
:1012800001F00701884216D2FFE742F20000C4F2E3
:101290000200016821F00701019A11430160006812
:1012A00000F007000199884204D0FFE701208DF883
:1012B0000F0044E0FFE702980078400700280CD5B3
:1012C000FFE741F20401C4F20201086820F4E06083
:1012D000029AD26810430860FFE70298007800077E
:1012E00000280DD5FFE741F20401C4F202010868AD
:1012F00020F46050029A126940EAC2000860FFE7D9
:1013000000F028F841F20401C4F202010968C9B2F0
:101310000A0942F67041C0F60001895CC84040F2FB
:101320000001C2F20001086040F20800C2F20000B1
:101330000068FFF74FFE00208DF80F00FFE79DF8D3
:101340000F0004B080BD00004C21C4F242210120F6
:10135000086070478BB040F60E70C1F210000A9022
:1013600040F60A30C0F60C50099040F20670C0F604
:101370000810089040F20230C0F20450079040F28A
:101380000120ADF81A00002005900490039002900F
:10139000019041F20400C4F2020000680590059833
:1013A00000F00C0001460091E0B3FFE7009804282C
:1013B00004D0FFE70098082806D034E041F200206E
:1013C000C0F27A00019034E00598C0F3834107A889
:1013D000405C02909DF81600C007C0B1FFE741F2E3
:1013E0000400C4F20200006800F400310DF11A009C
:1013F00040EA514000780490029841F20021C0F286
:101400007A0148430499B0FBF1F0039007E0029899
:1014100040F60011C0F23D0148430390FFE70398F6
:10142000019006E0FFE741F20020C0F27A0001904F
:10143000FFE701980BB0704780B541F20800C4F295
:10144000020000680006002809D5FFE7FFF74EFEFE
:1014500041F20A01C4F2020180200870FFE780BD5A
:1014600080B586B00490049820B9FFE701208DF87C
:1014700017002EE304980078C007002800F0AE8023
:10148000FFE741F20400C4F20200006800F00C0023
:10149000042813D0FFE741F20400C4F20200006800
:1014A00000F00C0008281BD1FFE741F20400C4F251
:1014B00002000068C003002812D5FFE741F20000D7
:1014C000C4F2020000688003002808D5FFE70498F2
:1014D000406820B9FFE701208DF81700F9E27CE0B1
:1014E000FFE704984068B0F5803F09D1FFE741F27B
:1014F0000001C4F20201086840F48030086032E064
:101500000498406868B9FFE741F20001C4F20201A3
:10151000086820F480300860086820F480200860A3
:1015200020E004984068B0F5A02F0DD1FFE741F20C
:101530000001C4F20201086840F4802008600868D5
:1015400040F4803008600CE041F20001C4F2020176
:10155000086820F480300860086820F48020086063
:10156000FFE7FFE7FFE7FFE704984068D0B1FFE738
:10157000FFF708FD0390FFE741F20000C4F202000C
:101580000068800300280CD4FFE7FFF7FBFC0399F9
:10159000401A652804D3FFE703208DF8170098E26E
:1015A000EAE719E0FFF7EEFC0390FFE741F20000E5
:1015B000C4F202000068800300280CD5FFE7FFF7A3
:1015C000E1FC0399401A652804D3FFE703208DF856
:1015D00017007EE2EAE7FFE7FFE7FFE704980078FD
:1015E0008007002840F18D80FFE741F20400C4F23B
:1015F0000200006810F00C0F13D0FFE741F2040066
:10160000C4F20200006800F00C00082829D1FFE7AE
:1016100041F20400C4F202000068C003002820D494
:10162000FFE741F20000C4F20200006880070028D2
:1016300009D5FFE704980069012804D0FFE70120DD
:101640008DF8170045E241F20001C4F2020108687A
:1016500020F0F800049A526940EAC2000860FFE7EF
:101660004EE00498006958B3FFE70021C4F242211C
:1016700001200860FFF786FC0390FFE741F20000BD
:10168000C4F202000068800700280CD4FFE7FFF7CF
:1016900079FC0399401A032804D3FFE703208DF84F
:1016A000170016E2EAE741F20001C4F202010868FD
:1016B00020F0F800049A526940EAC20008601EE077
:1016C0000021C4F2422100200860FFF75BFC039078
:1016D000FFE741F20000C4F2020000688007002822
:1016E0000CD5FFE7FFF74EFC0399401A032804D3FB
:1016F000FFE703208DF81700EBE1EAE7FFE7FFE7DC
:10170000FFE7049800780007002848D5FFE7049811
:10171000806918B3FFE740F28041C4F24221012002
:101720000860FFF72FFC0390FFE741F22400C4F2AA
:1017300002000068800700280CD4FFE7FFF722FCB6
:101740000399401A032804D3FFE703208DF81700FC
:10175000BFE1EAE7012000F00BFA1FE040F2804110
:10176000C4F2422100200860FFF70CFC0390FFE761
:1017700041F22400C4F202000068800700280CD562
:10178000FFE7FFF7FFFB0399401A032804D3FFE7A5
:1017900003208DF817009CE1EAE7FFE7FFE70498D4
:1017A00000784007002840F1D880FFE700208DF83E
:1017B000070041F21C00C4F202000068C0000028CB
:1017C00013D4FFE7FFE741F21C00C4F202000168F6
:1017D00041F080510160006800F080500090009856
:1017E000FFE701208DF80700FFE747F20000C4F291
:1017F00000000068C005002822D4FFE747F200017E
:10180000C4F20001086840F480700860FFF7BAFB7A
:101810000390FFE747F20000C4F200000068C00533
:1018200000280CD4FFE7FFF7ADFB0399401A6528A9
:1018300004D3FFE703208DF817004AE1EAE7FFE74A
:10184000FFE70498C068012809D1FFE741F22001B1
:10185000C4F20201086840F00100086031E0049819
:10186000C06868B9FFE741F22001C4F202010868CC
:1018700020F001000860086820F0040008601FE004
:101880000498C06805280DD1FFE741F22001C4F299
:101890000201086840F004000860086840F0010098
:1018A00008600CE041F22001C4F20201086820F057
:1018B00001000860086820F004000860FFE7FFE707
:1018C000FFE7FFE70498C068E0B1FFE7FFF75AFBC6
:1018D0000390FFE741F22000C4F202000068800795
:1018E00000280ED4FFE7FFF74DFB0399401A41F2A1
:1018F0008931884204D3FFE703208DF81700E8E020
:10190000E8E71BE0FFF73EFB0390FFE741F2200012
:10191000C4F202000068800700280ED5FFE7FFF739
:1019200031FB0399401A41F28931884204D3FFE721
:1019300003208DF81700CCE0E8E7FFE79DF80700EB
:10194000012809D1FFE741F21C01C4F20201086835
:1019500020F080500860FFE7FFE70498C069002886
:1019600000F0B380FFE741F20400C4F20200006817
:1019700000F00C00082800F08280FFE70498C0699E
:1019800002285CD1FFE76021C4F2422100200860F8
:10199000FFF7F8FA0390FFE741F20000C4F20200FB
:1019A0000068800100280CD5FFE7FFF7EBFA0399E8
:1019B000401A032804D3FFE703208DF8170088E0BE
:1019C000EAE70498006AB0F5803F0CD1FFE741F2E6
:1019D0000401C4F20201086820F40030049A9268FD
:1019E00010430860FFE741F20401C4F202010868F5
:1019F00020F47410049B1A6A5B6A1A43104308604F
:101A00006021C4F2422101200860FFF7BBFA039075
:101A1000FFE741F20000C4F20200006880010028E4
:101A20000CD4FFE7FFF7AEFA0399401A032804D35A
:101A3000FFE703208DF817004BE0EAE71EE0602186
:101A4000C4F2422100200860FFF79CFA0390FFE7F0
:101A500041F20000C4F202000068800100280CD5A9
:101A6000FFE7FFF78FFA0399401A032804D3FFE733
:101A700003208DF817002CE0EAE7FFE724E0049844
:101A8000C069012804D1FFE701208DF8170020E08C
:101A900041F20400C4F2020000680290029800F4CF
:101AA00080300499096A884208D1FFE7029800F45F
:101AB00070100499496A884204D0FFE701208DF82C
:101AC000170006E0FFE7FFE7FFE700208DF81700AB
:101AD000FFE79DF8170006B080BD000080B582B01A
:101AE0000190019800F064F802B080BDFFE7FEE7C6
:101AF000FFE7FEE780B5FFF79FFCFFE7FEE700008A
:101B000088B0079006910592079800F007000490AE
:101B10000498C0F10700052803D3FFE704200190D3
:101B200004E00498C0F107000190FFE701980390DA
:101B300004980430062803D8FFE70020009003E053
:101B4000049803380090FFE70098029006980399E4
:101B5000012202FA01F101390840029B98400599DF
:101B60009A40013A1140084308B07047704700009E
:101B700082B00190019840F20001C2F200010968B0
:101B8000C90844F6D352C1F26202A1FB02218909BD
:101B900048430090FFE700BFFFE70098411E009117
:101BA0000028F8D1FFE702B070470000704700003E
:101BB00080B582B0009000980138B0F1807F03D3E7
:101BC000FFE70120019019E0009801384EF214015E
:101BD000CEF2000108604FF0FF300F2100F072FBE1
:101BE0004EF21801CEF20001002008604EF2100201
:101BF000CEF20002072111600190FFE7019802B0C8
:101C000080BD000080B5FFF7C3F980BD70470000BC
:101C1000FFE7FEE780B500F095FB80BD80B590B092
:101C200006A800902821FEF7B6FB00980023059334
:101C30000493039302930193012206924FF480319F
:101C4000079108930A9202220D920E914FF4E0112F
:101C50000F91FFF705FC18B1FFE7FFF78BF9FFE7DE
:101C60000F20019002210291002003904FF4806226
:101C70000492059001A8FFF73BFA18B1FFE7FFF7C0
:101C800079F9FFE7FFF760FB10B080BD82B0FFE796
:101C900041F21800C4F20200016841F02001016025
:101CA000006800F0200001900198FFE7FFE741F293
:101CB0001800C4F20200016841F0040101600068EC
:101CC00000F0040000900098FFE702B070470000A9
:101CD00080B582B0019001984068FEF7B6FA02B074
:101CE00080BD000080B586B00490039102920499F3
:101CF000019102988968884207D9FFE7019901207C
:101D0000087000208DF817000CE0019840680399D6
:101D1000029AFEF7B9FA01990298486101208DF8FC
:101D20001700FFE79DF8170006B080BD80B58AB0A8
:101D300008900791069208980290079838B9FFE733
:101D400002990120087000208DF827002FE00299E9
:101D500006984969884207D9FFE70299022008706E
:101D600000208DF8270022E002984168069A03A817
:101D7000019000F097F90199079800F0D9F90198BE
:101D800000F0C6F90299069B48684A69C118D21A40
:101D9000FEF7BFFA0298069A4169891A41614168C3
:101DA00042690020885401208DF82700FFE79DF844
:101DB00027000AB080BD000080B582B00190019874
:101DC00000904FF4807181600161806800F05CFADE
:101DD000014600984160006900F056FA01460098FB
:101DE000C1600021017002B080BD000080B586B0E6
:101DF00004900498029005904068039020B1FFE79A
:101E0000039800F03BFAFFE70298C068019020B108
:101E1000FFE7019800F032FAFFE7059806B080BDB1
:101E200080B584B003900398029000F041F828B187
:101E3000FFE7029800F016F8019004E0029800F025
:101E40001BF80190FFE7019804B080BD80B582B017
:101E50000190019800F036F8806820F0004002B050
:101E600080BD000080B582B00190019800F02AF892
:101E7000006802B080BD000080B582B0019001987A
:101E800000F020F800F060F902B080BD80B582B0AB
:101E900001900198FFF7C4FF00F02CF802B080BD5C
:101EA00080B582B001900198FFF7F0FF02B080BDCD
:101EB00080B582B00190019800F004F8C07AC009A2
:101EC00002B080BD80B582B00190019800F002F8A8
:101ED00002B080BD81B00090009801B07047000052
:101EE00082B001900091009800780199087002B0CA
:101EF0007047000081B00090009801B0704700006A
:101F000080B58AB00890079108980590FFF7D0FF38
:101F100098B1FFE7059800F0BDF8014605980491D7
:101F200000F062F8014605980391FFF78FFF0399CF
:101F30000246049800F01AF9FFE70598079900F0A7
:101F400067F8079800F01EF901460598019100F026
:101F500019F9019B014618685A689B688B604A60B2
:101F6000086007980021029100F020F8079800F01F
:101F700045F802998DF81B100DF11B01FFF7B0FF1A
:101F80000AB080BD80B584B003900398002102910F
:101F90000191009100F0F6F801460098019A029B29
:101FA0008B604A60086004B080BD000080B584B0DA
:101FB00003900291039801909DF80810009100F0A1
:101FC000E1F8009B02460198D17A03F07F0301F00B
:101FD00080011944D17200F0D5F80146C87A00F0AA
:101FE0007F00C87204B080BD80B582B001900198B6
:101FF00000F0C8F8006802B080BD000080B582B073
:102000000190019800F0BEF800F0A4F802B080BD85
:1020100080B584B0039002910398029900F002F811
:1020200004B080BD80B584B0029001910298009008
:10203000019800F02FF8009800F02CF804B080BD53
:10204000F0B581B00D464FF6F071C7F6FF718A42C8
:102050001ED2144606460B2A04D206EB0407F4727D
:102060006CB911E044F00F00471C384600F00EF93F
:1020700047F00041C6E90004B16007190646304642
:1020800029462246FEF745F90020387001B0F0BD20
:10209000FEF77DFA80B582B00190019800F07AF8E1
:1020A00002B080BD80B588B0069005910492069874
:1020B0000090079003A902AA00F074F80499012087
:1020C000019031B1FFE70598002818BF0120019069
:1020D000FFE7009801990599049AFFF7B1FF00986E
:1020E00000F070F8079808B080BD000080B584B09B
:1020F00003900398009002A901AA00F053F80098F9
:1021000000F060F80098FFF73DFF009804B080BD34
:1021100010B5044690F90B00B0F1FF3F05DCA16853
:10212000206821F0004100F0ADF8204610BD00000D
:1021300080B584B003900291039800900299FFF754
:10214000DFFE009804B080BD81B00090009801B01F
:102150007047000081B00090009801B07047000007
:1021600081B00090009801B07047000080B584B045
:1021700003900291019203980299019A00F062F88B
:1021800004B080BD80B582B00190019800F02AF8BB
:1021900002B080BD80B582B00190019800F02EF8A9
:1021A00002B080BD80B586B0059004910392059879
:1021B000009000F01DF8009800F026F8009806B096
:1021C00080BD000081B0009001B0704780B584B040
:1021D0000390029101920398029900F029F804B04B
:1021E00080BD000081B00090009801B070470000F1
:1021F00082B00090009802B07047000081B000905B
:10220000009801B07047000080B584B00290029839
:10221000019000F023F8019804B080BD80B582B031
:10222000019000910198009900F02CF802B080BD57
:1022300080B582B00190009101980099FFF7EEFF00
:1022400002B080BD80B584B00390029101920298E3
:1022500001990122FFF7BAFF04B080BD80B582B0BA
:10226000019001980090FFF77BFF009802B080BDBD
:1022700040F27400C2F2000000687047AFF30080C3
:10228000FEF735B9FFF7FCBFAFF3008010B5044689
:10229000002808BF012400BF2046FEF7F9F80028F7
:1022A00018BF10BDFFF7E4FF08B18047F4E7002036
:1022B00010BD00004EF60C50CEF200000068C0F3D6
:1022C0000220704782B08DF8070000919DF9070049
:1022D00000280AD4FFE7009800019DF907104EF28C
:1022E0000042CEF2000288540BE0009800019DF8F5
:1022F000071001F00F014EF61452CEF2000288547E
:10230000FFE702B07047000083B00290029800F02F
:10231000070000904EF60C51CEF2000108680190C3
:1023200001984FF6FF02104001900198009A40EA90
:1023300002200022C0F2FA52104301900198086076
:1023400003B0704780B582B040F24010C2F2000086
:102350000190FFF731FD019941F6ED50C0F6000004
:1023600040F20002C0F60002FDF746FF02B080BD59
:1023700080B588B000200790FEF718FEFFF74EFCEE
:10238000FFF784FC40F27800C2F20000019042F6B0
:102390008041C0F60001FDF734FF0198FDF755FFBD
:1023A0000199024640F24010C2F200000290FFF78D
:1023B00099FC04A80390FFF799FE02980399022262
:1023C000FFF7B4FC0398FFF76BFD014640F2DC0019
:1023D000C2F20000FDF715FFFFE7FFE740F24010F3
:1023E000C2F20000FFF774FC40F27001C2F200017B
:1023F0000860F2E75FEA400C08BF91F0000F4FEA77
:102400008C234FEAC12243EA51514FEA1C5018BFB6
:1024100000F5F0404FEA300018BF41F000415FEA9C
:102420006C5C00F02980BCF1FF3F08BF40F08040A9
:102430007047130C06BF12044FF0100C4FF0000C45
:10244000130E04BF12020CF1080C130F04BF12018B
:102450000CF1040C930F04BF92000CF1020CD30F8B
:1024600004BF52000CF1010C11464FF00002A0F124
:102470001F00A0EB0C00704711F0004F08BF704721
:1024800031F000413FF4D5AF0B0C06BF09044FF00B
:10249000100C4FF0000C0B0E04BF09020CF1080CDD
:1024A0000B0F04BF09010CF1040C8B0F04BF890052
:1024B0000CF1020CCB0F04BF49000CF1010CCCF164
:1024C000200322FA03F341EA030102FA0CF2A0EB23
:1024D0000C0000F10100704723F07F4720F07F4C93
:1024E00080EA030000F00040ACEB070303F57C53E7
:1024F00003F1FF032DE9804909B44FEA144324EAAC
:1025000003484FEA154B25EA0B4E0FF2042606EB63
:1025100013273E7803FB0667C7F5000707FB06F69F
:102520004FEAD64606F102064FEA543707FB066C1F
:10253000CCF1005C4FEA1C472CEA074C0CFB06F57B
:1025400007FB06F404EB15464FEA961649085FEAC6
:10255000320234BF00204FF000404FEAD13706FB73
:1025600007FC4FEA1C4C0CFB0BF7D21B03FB0CF7D0
:1025700061EB07010CFB0EF7B0EB074072EB174263
:102580000CFB08F734BFA2EB0742B2EB074261EB4A
:1025900017414FEA0C444FEA910706FB07FC4FEA4C
:1025A0001C4C0CFB0BF7B0EBC74072EB573203FB34
:1025B0000CF734BFA2EBC742B2EBC74261EB573115
:1025C0000CFB0EF7B0EBC70072EB57720CFB08F771
:1025D00034BFA2EBC702B2EBC70261EB57714FEAFF
:1025E000816141EA92114FEA826242EA90124FEA17
:1025F000806004EBCC04039F4FEAD13706FB07FC55
:102600004FEA1C4C0CFB0BF7D21B03FB0CF761EBE6
:1026100007010CFB0EF7B0EB074072EB17420CFB07
:1026200008F734BFA2EB0742B2EB074261EB174158
:102630004FEA8C5504EB9C244FEA910706FB07FCFC
:102640004FEA1C4C0CFB0BF7B0EBC74072EB573258
:1026500003FB0CF734BFA2EBC742B2EBC74261EBFE
:1026600057310CFB0EF7B0EBC70072EB57720CFB47
:1026700008F734BFA2EBC702B2EBC70261EB577198
:102680004FEA816141EA92114FEA826242EA901276
:102690004FEA806015EB4C2544F100044FEAD13736
:1026A00006FB07FC4FEA1C4C0CFB0BF7D21B03FB91
:1026B0000CF761EB07010CFB0EF7B0EB074072EB78
:1026C00017420CFB08F734BFA2EB0742B2EB0742FC
:1026D00061EB17414FEA813141EA92414FEA823280
:1026E00042EA90424FEA80304FEA0C7615EB1C1517
:1026F00044F1000448EA03434EEA0B484FF0000E51
:10270000B2EB080C71EB030724BF624639464EEB6F
:102710000E0E4FF0000B0018524149414BEB0B0BD2
:10272000B2EB080C71EB03077BF1000B24BF624690
:1027300039464EEB0E0E4FF0000B00185241494146
:102740004BEB0B0BB2EB080C71EB03077BF1000BAF
:1027500024BF624639464EEB0E0E51EA020718BFFF
:1027600046F0010616EB0E7655F1000254F1000119
:1027700003D5BDE88901BDE80088BDE88901BDE851
:102780000048B619524141EB0101A3F10103704722
:1027900080807F7E7D7C7B7A79787776767574739E
:1027A000727171706F6E6E6D6C6C6B6A6A6968685D
:1027B000676666656464636362616160605F5F5EF3
:1027C0005E5D5D5C5C5B5B5A5A5959585857575669
:1027D00056555555545453535252525151505050CE
:1027E0004F4F4F4E4E4D4D4D4C4C4C4B4B4B4A4A20
:1027F0004A49494948484847474747464646454564
:10280000454444444443434343424242424141419C
:102810009C46002B30D477002BD04FEA37071CB5ED
:1028200003B44FF010004FF01001BAF1000F06D0C2
:10283000BCF1000FDCBF40F0080040F008014FF091
:1028400000000FBCBDE810400BF1010BBBF1010F04
:1028500008BF5FEA170722BF12F1010211F101015F
:102860004FF0004143F1000300F0004043EA000054
:102870007047F9D35708D0E746EA06464FEA1646AE
:1028800013F1400F1FDD13F1200FDFBF16430A467F
:10289000002120335B42BED0C3F1200746EA064642
:1028A0004FEA164602FA07F746EA070622FA03F24B
:1028B000C3F1200701FA07F742EA070221FA03F100
:1028C0004FF00003A7E746EA020646EA06464FEA4B
:1028D000164646EA0106BCBF46EA0646360C4FF0ED
:1028E00000034FF000024FF0000194E72DE9804C07
:1028F00070B49A46934691E8380007C831EA400C14
:1029000048BF34EA430C03D5FFF7E6FDFFF780FF2D
:10291000F0BCBDE8008C2DE9804C70B49A4693461B
:1029200091E8380007C810F0804F08BF13F0804FBF
:1029300003D100F005F8FFF76BFFF0BCBDE8008C99
:1029400020F07F4723F07F4C80EA030000F0004036
:1029500007EB0C03A3F57C53A3F1FE0392F0000FE9
:1029600000F0B38095F0000F00F077802DE9014969
:102970004FEA114021EA00484FEA144624EA06478C
:1029800000FB06FC08FB06F607FB08F818EB0648F8
:102990004CEB164C00FB07F718EB07484CEB1740C5
:1029A0004FEA124B22EA0B4E4FEA154625EA06473C
:1029B0000BFB06FC0EFB06F607FB0EFE1EEB064E9F
:1029C0004CEB164C0BFB07F71EEB074E4CEB174B73
:1029D00018EB0B0840F1000018EB0E0B58EB000849
:1029E00040F100008F1A4FF000014FF000063CBF8D
:1029F000C943661B14BFB5EB040C00213CBFC9439F
:102A0000F61B4FEA174427EA04454FEA1C472CEA15
:102A1000074C04FB076205FB07F70CFB05F616EBFA
:102A2000074642EB174204FB0CFC16EB0C4642EB4C
:102A30001C421BEB060658EB020241414EEA8E0E89
:102A400046EA9E0601D5BDE80189B619524141EB1F
:102A50000101A3F10103BDE801894FEA144524EA0D
:102A600005464FEA114721EA074C05FB07F406FB30
:102A700007F70CFB06F111EB074144EB174405FB8C
:102A80000CFC11EB0C4144EB1C444FEA124722EAC8
:102A9000074C05FB07F206FB07F70CFB06F616EBE7
:102AA000074642EB174205FB0CFC16EB0C4642EBCB
:102AB0001C456A1854F1000148BF7047B6195241CD
:102AC00041EB0101A3F10103704795F0000F37D0EE
:102AD0004FEA114221EA02464FEA144724EA074C22
:102AE00002FB07F106FB07F70CFB06F414EB0744A7
:102AF00041EB174102FB0CFC14EB0C4441EB1C4175
:102B00004FEA154725EA074C02FB07F506FB07F7D6
:102B10000CFB06F616EB074645EB174502FB0CFCD3
:102B200016EB0C4645EB1C42121951F1000148BF4F
:102B30007047B619524141EB0101A3F101037047FF
:102B40004FEA144524EA05464FEA114721EA074CAB
:102B500005FB07F106FB07F70CFB06F212EB074239
:102B600041EB174105FB0CFC12EB0C4251EB1C41F5
:102B70004FF0000648BF7047921841EB0101A3F1E6
:102B800001037047490050EAC12018BF04204A0DD4
:102B900018BF40F0010040F2FF72B2EB515F08BF76
:102BA00040F00200012808BF0520704710B5002939
:102BB0000AD00878002807D005487844FDF712FCB1
:102BC000002801D0002010BD0248784410BD00004C
:102BD000EE000000E6000000FDF7E7BE0240000046
:102BE000000000A00000000005400000000000C838
:102BF000000000000C4000000000409C00000000AD
:102C0000194000000020BCBE00000000344000005D
:102C1000BFC91B8E00000004B5400000504BCFD050
:102C20006607E2CF010000006C4100003E8251AA1D
:102C3000DFEEA73401000000D9420000DCB5A0E2BD
:102C40003A301F97FFFFFFFFB4450000FD25A0C8E5
:102C5000E9A3C14FFFFFFFFFFF3F0000000000801E
:102C600000000000FF3F00000000008000000000A6
:102C7000000000000000000001020304060708092C
:102C800068656C6C6F000000C82C00080000002014
:102C90001000000028010008D82C000810000020B7
:102CA00050070000440100081C0000004300000021
:102CB000F8FFFFFF0C0000000E0000000F000000F6
:102CC0002E00000051EFFFFF0024F400010000007F
:082CD0001000000000000000EC
:04000005080000ED02
:00000001FF
